:100000000C942A000C943C000C943C000C943C0092
:100010000C94F4020C94C7020C943C000C943C0029
:100020000C943C000C943C000C9476020C94490215
:100030000C943C000C943E000C946B000C949800C3
:100040000C943C000C943C000C943C000C943C0040
:100050000C943C0011241FBECFE5D8E0DEBFCDBF1D
:1000600010E0A0E6B0E001C01D92AE36B107E1F7A6
:100070000E94E9080C94E3090C9400001F920F926F
:100080000FB60F9211242F933F934F935F936F936B
:100090007F938F939F93AF93BF93EF93FF93DF93E0
:1000A000CF93CDB7DEB7E0916200F0916300099580
:1000B000CF91DF91FF91EF91BF91AF919F918F9180
:1000C0007F916F915F914F913F912F910F900FBE54
:1000D0000F901F9018951F920F920FB60F92112438
:1000E0002F933F934F935F936F937F938F939F9340
:1000F000AF93BF93EF93FF93DF93CF93CDB7DEB76B
:10010000E0916000F09161000995CF91DF91FF913E
:10011000EF91BF91AF919F918F917F916F915F917F
:100120004F913F912F910F900FBE0F901F901895F8
:100130001F920F920FB60F9211242F933F934F935C
:100140005F936F937F938F939F93AF93BF93EF933F
:10015000FF93DF93CF93CDB7DEB7E0916400F091CA
:1001600065000995CF91DF91FF91EF91BF91AF911C
:100170009F918F917F916F915F914F913F912F91BF
:100180000F900FBE0F901F901895DF93CF9300D064
:1001900000D000D0CDB7DEB76B837C838D839E8388
:1001A000EAE2F0E01082E0E4F0E01082AAE2B0E0DF
:1001B000EAE2F0E0808180618C93AAE2B0E0EAE2BA
:1001C000F0E0808188608C93A0E4B0E0E0E4F0E0AF
:1001D000808180688C93A0E4B0E0E0E4F0E080816E
:1001E00082608C93A0E4B0E0E0E4F0E08081846081
:1001F0008C93AAE2B0E0EAE2F0E080818B7F8C93FE
:10020000A0E4B0E0E0E4F0E080818F7B8C93A0E498
:10021000B0E0E0E4F0E080818E7F8C93A0E4B0E079
:10022000E0E4F0E080818F7E8C93A0E4B0E0E0E435
:10023000F0E080818F7D8C93A0E4B0E0E0E4F0E01A
:100240008081877F8C938B819C81AD81BE81880F5B
:10025000991FAA1FBB1F880F991FAA1FBB1F880FBA
:10026000991FAA1FBB1F880F991FAA1FBB1F9C01A4
:10027000AD0180E492E4AFE0B0E0BC01CD010E94AA
:10028000C109DA01C90101979A838983E0E4F0E0AA
:1002900089819A81892F99278F708083E9E2F0E024
:1002A0008981808326960FB6F894DEBF0FBECDBF3E
:1002B000CF91DF910895DF93CF930F92CDB7DEB743
:1002C0008983EBE2F0E08081882F90E0807290706B
:1002D0000097B9F3ECE2F0E0898180830F90CF9131
:1002E000DF910895DF93CF9300D0CDB7DEB79A8327
:1002F00089830AC0E981FA8180810E945B0189813A
:100300009A8101969A838983E981FA818081882381
:1003100089F70F900F90CF91DF910895DF93CF93DE
:1003200000D0CDB7DEB79A838983EBE2F0E080811D
:100330008823DCF7ECE2F0E08081E981FA818083B8
:100340000F900F90CF91DF910895DF93CF9300D05E
:100350000F92CDB7DEB79A8389836B838B81882315
:1003600039F489819A81909363008093620013C06D
:100370008B81813039F489819A81909365008093D3
:10038000640009C08B81823031F489819A81909315
:100390006100809360000F900F900F90CF91DF91DC
:1003A0000895DF93CF93CDB7DEB7AAE2B0E0EAE2DB
:1003B000F0E0808180688C93CF91DF910895DF9386
:1003C000CF93CDB7DEB7AAE2B0E0EAE2F0E08081F9
:1003D0008F778C93CF91DF910895DF93CF93CDB733
:1003E000DEB7AAE2B0E0EAE2F0E0808180648C93BC
:1003F000CF91DF910895DF93CF93CDB7DEB7AAE217
:10040000B0E0EAE2F0E080818F7B8C93CF91DF91C6
:100410000895DF93CF93CDB7DEB7AAE2B0E0EAE26A
:10042000F0E0808180628C93CF91DF910895DF931B
:10043000CF93CDB7DEB7AAE2B0E0EAE2F0E0808188
:100440008F7D8C93CF91DF910895DF93CF9300D070
:10045000CDB7DEB79A83898389819A8190936D00A5
:1004600080936C000F900F90CF91DF910895DF93F0
:10047000CF9300D0CDB7DEB79A83898389819A81E3
:1004800090936B0080936A000F900F90CF91DF9153
:1004900008951F920F920FB60F9211242F933F933E
:1004A0004F935F936F937F938F939F93AF93BF937C
:1004B000EF93FF93DF93CF93CDB7DEB7E0916C005E
:1004C000F0916D000995CF91DF91FF91EF91BF9170
:1004D000AF919F918F917F916F915F914F913F91DC
:1004E0002F910F900FBE0F901F9018951F920F9293
:1004F0000FB60F9211242F933F934F935F936F93F7
:100500007F938F939F93AF93BF93EF93FF93DF936B
:10051000CF93CDB7DEB7E0916A00F0916B000995FB
:10052000CF91DF91FF91EF91BF91AF919F918F910B
:100530007F916F915F914F913F912F910F900FBEDF
:100540000F901F901895DF93CF9300D0CDB7DEB7F3
:100550009A83898389819A81909369008093680046
:100560000F900F90CF91DF910895DF93CF9300D03C
:10057000CDB7DEB79A83898389819A81909367008A
:10058000809366000F900F90CF91DF9108951F9296
:100590000F920FB60F9211242F933F934F935F93B7
:1005A0006F937F938F939F93AF93BF93EF93FF933B
:1005B000DF93CF93CDB7DEB7E0916800F09169008B
:1005C0000995CF91DF91FF91EF91BF91AF919F91ED
:1005D0008F917F916F915F914F913F912F910F90EC
:1005E0000FBE0F901F9018951F920F920FB60F928B
:1005F00011242F933F934F935F936F937F938F9328
:100600009F93AF93BF93EF93FF93DF93CF93CDB7B8
:10061000DEB7E0916600F09167000995CF91DF9118
:10062000FF91EF91BF91AF919F918F917F916F91CA
:100630005F914F913F912F910F900FBE0F901F90A0
:100640001895DF93CF93CDB7DEB7A3E5B0E0E3E530
:10065000F0E0808180648C93A3E5B0E0E3E5F0E016
:10066000808188608C93A3E5B0E0E3E5F0E08081D1
:100670008F7E8C93A3E5B0E0E3E5F0E080818062BB
:100680008C93A3E5B0E0E3E5F0E080818E7F8C936E
:10069000A3E5B0E0E3E5F0E080818D7F8C93A3E5F6
:1006A000B0E0E3E5F0E0808184608C93A9E5B0E000
:1006B000E9E5F0E080818E7F8C93A9E5B0E0E9E583
:1006C000F0E080818D7F8C93A8E5B0E0E8E5F0E074
:1006D000808181608C93A8E5B0E0E8E5F0E080815E
:1006E00082608C93E2E5F0E01082ECE5F0E01082AD
:1006F000CF91DF910895DF93CF930F92CDB7DEB7FF
:100700008983E2E5F0E0898180830F90CF91DF91CA
:100710000895DF93CF930F92CDB7DEB78983ECE5D1
:10072000F0E0898180830F90CF91DF910895DF936E
:10073000CF93CDB7DEB7A9E5B0E0E9E5F0E0808181
:1007400081608C93CF91DF910895DF93CF93CDB7E4
:10075000DEB7A9E5B0E0E9E5F0E080818E7F8C931B
:10076000CF91DF910895DF93CF93CDB7DEB7A9E5A1
:10077000B0E0E9E5F0E0808182608C93CF91DF9179
:100780000895DF93CF93CDB7DEB7A9E5B0E0E9E5F3
:10079000F0E080818D7F8C93CF91DF910895DF937E
:1007A000CF93CDB7DEB7A5E4B0E0E5E4F0E080811B
:1007B00080648C93A5E4B0E0E5E4F0E0808188609B
:1007C0008C93A5E4B0E0E5E4F0E080818F7E8C932B
:1007D000A5E4B0E0E5E4F0E0808180628C93A5E4DC
:1007E000B0E0E5E4F0E080818E7F8C93A5E4B0E09A
:1007F000E5E4F0E080818D7F8C93A5E4B0E0E5E452
:10080000F0E0808184608C93A9E5B0E0E9E5F0E058
:1008100080818F7B8C93A9E5B0E0E9E5F0E08081F1
:100820008F778C93A8E5B0E0E8E5F0E08081806404
:100830008C93A8E5B0E0E8E5F0E0808180688C93D7
:10084000E4E4F0E01082E3E4F0E01082CF91DF9185
:100850000895DF93CF930F92CDB7DEB78983E4E499
:10086000F0E0898180830F90CF91DF910895DF932D
:10087000CF930F92CDB7DEB78983E3E4F0E08981AF
:1008800080830F90CF91DF910895DF93CF93CDB701
:10089000DEB7A9E5B0E0E9E5F0E0808180648C9303
:1008A000CF91DF910895DF93CF93CDB7DEB7A9E560
:1008B000B0E0E9E5F0E080818F7B8C93CF91DF9110
:1008C0000895DF93CF93CDB7DEB7A9E5B0E0E9E5B2
:1008D000F0E0808180688C93CF91DF910895DF9361
:1008E000CF93CDB7DEB7A9E5B0E0E9E5F0E08081D0
:1008F0008F778C93CF91DF910895DF93CF93CDB70E
:10090000DEB7AFE5B0E0EFE5F0E0808180688C9382
:10091000CF91DF910895DF93CF93CDB7DEB7AFE5E9
:10092000B0E0EFE5F0E080818F778C93CF91DF919D
:100930000895DF93CF93CDB7DEB7EAE3F0E08FEF12
:100940008083E7E3F0E08FEF8083E4E3F0E08FEF74
:100950008083E1E3F0E08EEF8083CF91DF91089513
:10096000DF93CF9300D000D000D0CDB7DEB78B831C
:100970006C838B8187708A838B818695869586951B
:1009800089838981282F30E03E832D838D819E814C
:100990008130910509F447C02D813E812230310517
:1009A0002CF48D819E81009771F0CBC02D813E810A
:1009B0002230310509F467C08D819E818330910515
:1009C00009F491C0BEC08C818130A1F4ABE3B0E0EA
:1009D000EBE3F0E08081482F8A81282F30E081E02E
:1009E00090E0022E02C0880F991F0A94E2F7842B30
:1009F0008C93A7C08C81882309F0A3C0ABE3B0E03F
:100A0000EBE3F0E08081482F8A81282F30E081E0FD
:100A100090E0022E02C0880F991F0A94E2F7809599
:100A200084238C938EC08C818130A1F4A8E3B0E044
:100A3000E8E3F0E08081482F8A81282F30E081E0D0
:100A400090E0022E02C0880F991F0A94E2F7842BCF
:100A50008C9377C08C81882309F073C0A8E3B0E041
:100A6000E8E3F0E08081482F8A81282F30E081E0A0
:100A700090E0022E02C0880F991F0A94E2F7809539
:100A800084238C935EC08C818130A1F4A5E3B0E017
:100A9000E5E3F0E08081482F8A81282F30E081E073
:100AA00090E0022E02C0880F991F0A94E2F7842B6F
:100AB0008C9347C08C81882309F043C0A5E3B0E044
:100AC000E5E3F0E08081482F8A81282F30E081E043
:100AD00090E0022E02C0880F991F0A94E2F78095D9
:100AE00084238C932EC08C818130A1F4A2E3B0E0EA
:100AF000E2E3F0E08081482F8A81282F30E081E016
:100B000090E0022E02C0880F991F0A94E2F7842B0E
:100B10008C9317C08C818823A1F4A2E3B0E0E2E3B8
:100B2000F0E08081482F8A81282F30E081E090E03A
:100B3000022E02C0880F991F0A94E2F78095842341
:100B40008C9326960FB6F894DEBF0FBECDBFCF9123
:100B5000DF910895DF93CF9300D0CDB7DEB78983BF
:100B60006A83898160E00E94B0040F900F90CF915A
:100B7000DF910895DF93CF9300D000D000D0CDB7A0
:100B8000DEB78B836C838B8187708A838B8186959C
:100B90008695869589838981282F30E03E832D8331
:100BA0008D819E818130910509F45AC02D813E814D
:100BB000223031052CF48D819E81009771F017C190
:100BC0002D813E812230310509F48DC08D819E81B9
:100BD0008330910509F4CAC00AC18C818130A1F427
:100BE000AAE3B0E0EAE3F0E08081482F8A81282F71
:100BF00030E081E090E0022E02C0880F991F0A9435
:100C0000E2F7842B8C93F3C08C81882309F0EFC02A
:100C1000AAE3B0E0EAE3F0E08081482F8A81282F40
:100C200030E081E090E002C0880F991F2A95E2F73A
:100C3000809584238C93ABE3B0E0EBE3F0E080811C
:100C4000482F8A81282F30E081E090E0022E02C0F8
:100C5000880F991F0A94E2F7809584238C93C7C06C
:100C60008C818130A1F4A7E3B0E0E7E3F0E080817C
:100C7000482F8A81282F30E081E090E0022E02C0C8
:100C8000880F991F0A94E2F7842B8C93B0C08C8153
:100C9000882309F0ACC0A7E3B0E0E7E3F0E080818F
:100CA000482F8A81282F30E081E090E002C0880F31
:100CB000991F2A95E2F7809584238C93A8E3B0E0EE
:100CC000E8E3F0E08081482F8A81282F30E081E03E
:100CD00090E0022E02C0880F991F0A94E2F78095D7
:100CE00084238C9384C08C818130A1F4A4E3B0E090
:100CF000E4E3F0E08081482F8A81282F30E081E012
:100D000090E0022E02C0880F991F0A94E2F7842B0C
:100D10008C936DC08C81882309F069C0A7E3B0E093
:100D2000E7E3F0E08081482F8A81282F30E081E0DE
:100D300090E002C0880F991F2A95E2F780958423DE
:100D40008C93A8E3B0E0E8E3F0E08081482F8A814B
:100D5000282F30E081E090E0022E02C0880F991F1A
:100D60000A94E2F7809584238C9341C08C81813072
:100D7000A1F4A1E3B0E0E1E3F0E08081482F8A81B3
:100D8000282F30E081E090E0022E02C0880F991FEA
:100D90000A94E2F7842B8C932AC08C81882339F53E
:100DA000A1E3B0E0E1E3F0E08081482F8A81282FC1
:100DB00030E081E090E002C0880F991F2A95E2F7A9
:100DC000809584238C93A2E3B0E0E2E3F0E080819D
:100DD000482F8A81282F30E081E090E0022E02C067
:100DE000880F991F0A94E2F7809584238C932696A6
:100DF0000FB6F894DEBF0FBECDBFCF91DF9108953F
:100E0000DF93CF9300D000D00F92CDB7DEB78B83A6
:100E10008B8187708A838B81869586958695898359
:100E20008981282F30E03D832C838C819D81813006
:100E3000910509F43EC02C813D81223031052CF40E
:100E40008C819D81009771F0A8C02C813D8122305A
:100E5000310509F455C08C819D818330910509F4D9
:100E600076C09BC0AAE3B0E0EAE3F0E08081482FBF
:100E70008A81282F30E081E090E002C0880F991F1E
:100E80002A95E2F7809584238C93ABE3B0E0EBE303
:100E9000F0E08081482F8A81282F30E081E090E0C7
:100EA000022E02C0880F991F0A94E2F7842B8C93BC
:100EB00074C0A8E3B0E0E8E3F0E08081482F8A81C5
:100EC000282F30E081E090E002C0880F991F2A951A
:100ED000E2F7842B8C93A7E3B0E0E7E3F0E08081B6
:100EE000482F8A81282F30E081E090E0022E02C056
:100EF000880F991F0A94E2F7809584238C934DC044
:100F0000A5E3B0E0E5E3F0E08081482F8A81282F57
:100F100030E081E090E002C0880F991F2A95E2F747
:100F2000842B8C93A4E3B0E0E4E3F0E08081482FCD
:100F30008A81282F30E081E090E0022E02C0880FE5
:100F4000991F0A94E2F7809584238C9326C0A1E32D
:100F5000B0E0E1E3F0E08081482F8A81282F30E083
:100F600081E090E002C0880F991F2A95E2F78095F2
:100F700084238C93A2E3B0E0E2E3F0E08081482F89
:100F80008A81282F30E081E090E0022E02C0880F95
:100F9000991F0A94E2F7842B8C930F900F900F9077
:100FA0000F900F90CF91DF910895DF93CF9300D0F2
:100FB00000D000D0CDB7DEB78C838C8187708B8357
:100FC0008C818695869586958A838A81282F30E044
:100FD0003E832D838D819E818130910539F12D8154
:100FE0003E81223031052CF48D819E81009761F085
:100FF00052C02D813E812230310551F18D819E817B
:1010000083309105B9F147C0E9E3F0E08081482FD2
:101010008B81282F30E081E090E0022E02C0880F03
:10102000991F0A94E2F78423898335C0E6E3F0E050
:101030008081482F8B81282F30E081E090E0022EC4
:1010400002C0880F991F0A94E2F78423898323C082
:10105000E3E3F0E08081482F8B81282F30E081E0AE
:1010600090E0022E02C0880F991F0A94E2F78423B1
:10107000898311C0E0E3F0E08081482F8B81282F25
:1010800030E081E090E0022E02C0880F991F0A94A0
:10109000E2F784238983898126960FB6F894DEBF10
:1010A0000FBECDBFCF91DF910895DF93CF9300D0D6
:1010B00000D0CDB7DEB789836A838981282F30E0DD
:1010C0003C832B838B819C8181309105D1F02B81D6
:1010D0003C81223031052CF48B819C81009761F09A
:1010E0001EC02B813C812230310581F08B819C8197
:1010F0008330910581F013C0EBE3F0E08A818083B7
:101100000EC0E8E3F0E08A81808309C0E5E3F0E007
:101110008A81808304C0E2E3F0E08A8180830F90BB
:101120000F900F900F90CF91DF910895DF93CF93A1
:1011300000D0CDB7DEB789836A83898160E00E94E1
:1011400055080F900F90CF91DF910895DF93CF93C3
:1011500000D000D0CDB7DEB789838981282F30E059
:101160003C832B838B819C8181309105D1F02B8135
:101170003C81223031052CF48B819C81009761F0F9
:101180001FC02B813C812230310581F08B819C81F5
:101190008330910581F014C0EBE3F0E090819A83F5
:1011A00010C0E8E3F0E020812A830BC0E5E3F0E023
:1011B00030813A8306C0E2E3F0E080818A8301C097
:1011C0001A828A810F900F900F900F90CF91DF912C
:1011D0000895DF93CF9300D00F92CDB7DEB70E9472
:1011E00099040E9421030E94CF0360E875E280E029
:1011F00090E00E94C5000E947D0480E00E943704B8
:1012000089E20E94890382E160E00E94B00480E1EB
:1012100060E00E94B0041982CE0101960E948E0106
:101220008981282F30E03B832A838A819B818638FD
:10123000910509F463C02A813B812738310514F5F3
:101240008A819B818338910509F44CC02A813B81B6
:101250002438310564F48A819B818138910509F431
:1012600039C02A813B8122383105C1F188C08A8189
:101270009B8184389105D1F12A813B812538310544
:10128000C9F17DC08A819B818938910509F44AC0E2
:101290002A813B812A3831055CF48A819B81873819
:1012A0009105A1F12A813B8128383105B9F167C048
:1012B0008A819B818139910509F444C02A813B814F
:1012C0002239310509F44DC08A819B81803991050D
:1012D00089F155C082E00E94890351C086E10E94D5
:1012E00089034DC089E20E94890349C08BE30E94B3
:1012F000890345C088E70E94890341C08EEF0E94A0
:10130000370481E160E00E94B00439C084E60E94A5
:10131000370481E160E00E94B00431C080E00E94A7
:1013200037042DC084E60E94370481E161E00E9409
:10133000B00425C08EEF0E94370481E161E00E9475
:10134000B0041DC080E10E94D507882329F480E104
:1013500061E00E94B00413C080E160E00E94B0042C
:101360000EC082E10E94D507882329F482E161E062
:101370000E94B00404C082E160E00E94B0041982BF
:101380004BCFA1E21A2EAA1BBB1BFD010DC0AA1F49
:10139000BB1FEE1FFF1FA217B307E407F50720F0DE
:1013A000A21BB30BE40BF50B661F771F881F991F59
:1013B0001A9469F760957095809590959B01AC01A2
:0A13C000BD01CF010895F894FFCF9E
:00000001FF
