:100000000C942A000C941F0A0C944C0A0C94790A44
:100010000C9447000C9447000C9447000C94470044
:100020000C9447000C9447000C9447000C94470034
:100030000C9447000C9417070C9444070C94710718
:100040000C94BB0F0C9447000C9447000C94470091
:100050000C94470011241FBECFE5D8E0DEBFCDBF12
:1000600011E0A0E6B0E0E4EBF4E202C005900D92EE
:10007000A837B107D9F711E0A8E7B1E001C01D9298
:10008000A838B107E1F70E9423110C9458120C9480
:100090000000EF92FF920F931F937B018C0120E0F1
:1000A00030E040E05FE40E94F50388238CF0C80153
:1000B000B70120E030E040E05FE40E94C1010E940F
:1000C00055049B01AC01205030404040504806C0D0
:1000D000C801B7010E9455049B01AC01B901CA01D6
:1000E0001F910F91FF90EF900895A0E0B0E0EBE733
:1000F000F0E00C942112DC012B01FA019C9192306A
:1001000008F439C1EB018881823008F433C194309E
:1001100069F4843009F02FC111969C91119789815F
:10012000981709F428C1A0E6B0E025C1843009F48D
:1001300021C18230A9F4923009F01DC19A01AD01AC
:1001400088E0EA010990AE01E90109929E0181501F
:10015000C1F7E201898111969C918923818308C1AD
:10016000923009F407C112962D903C901397EB0141
:100170008A819B811496AD90BD90CD90DC901797AD
:10018000EC80FD800E811F819101281B390BB90184
:1001900037FF04C066277727621B730B6032710537
:1001A0000CF061C0121613066CF537014801062EDB
:1001B00004C096948794779467940A94D2F721E0C8
:1001C00030E040E050E004C0220F331F441F551FB1
:1001D0006A95D2F721503040404050402E213F21B7
:1001E00040235123211531054105510521F021E01E
:1001F00030E040E050E079018A01E628F72808293C
:1002000019293CC0232BD1F1260E371E350146019A
:10021000062E04C096948794779467940A94D2F734
:1002200021E030E040E050E004C0220F331F441FC3
:10023000551F6A95D2F721503040404050402A2146
:100240003B214C215D21211531054105510521F04E
:1002500021E030E040E050E059016A01A628B728CB
:10026000C828D9280BC0821593052CF01C01AA249C
:10027000BB24650103C0EE24FF24870111969C91E5
:10028000D20111968C91981709F445C0992339F041
:10029000A80197012A193B094C095D0906C0A6016E
:1002A00095012E193F09400B510B57FD08C01182D3
:1002B0003382228224833583468357831DC081E0A5
:1002C00081833382228288279927DC01821B930B4A
:1002D000A40BB50B84839583A683B7830DC0220F2F
:1002E000331F441F551F24833583468357838281E0
:1002F000938101979383828324813581468157813D
:10030000DA01C9010197A109B1098F5F9F4FAF4F72
:10031000BF4328F30BC0918333822282EA0CFB1C7B
:100320000C1D1D1DE482F5820683178383E0808304
:10033000248135814681578157FF1AC0C901AA27F8
:1003400097FDA095BA2F81709070A070B0705695EF
:10035000479537952795822B932BA42BB52B848318
:100360009583A683B7838281938101969383828349
:10037000DF0101C0D201CD01CDB7DEB7E2E10C94BF
:100380003D12A0E2B0E0E7ECF1E00C942D1269839D
:100390007A838B839C832D833E834F835887E9E048
:1003A000EE2EF12CEC0EFD1ECE010196B7010E943F
:1003B00046068E010F5E1F4FCE010596B8010E94C2
:1003C00046068A8991E089278A8BC701B801AE0168
:1003D000475E5F4F0E9475000E947105A096E6E09F
:1003E0000C944912A0E2B0E0E8EFF1E00C942D1279
:1003F00069837A838B839C832D833E834F835887C5
:10040000F9E0EF2EF12CEC0EFD1ECE010196B701A6
:100410000E9446068E010F5E1F4FCE010596B80161
:100420000E944606C701B801AE01475E5F4F0E94B9
:1004300075000E947105A096E6E00C944912A0E2B6
:10044000B0E0E5E2F2E00C94211269837A838B83B9
:100450009C832D833E834F835887CE010196BE0136
:10046000675F7F4F0E944606CE010596BE016F5E14
:100470007F4F0E9446069985923088F089898230A4
:10048000C8F0943019F4823051F404C0843029F457
:10049000923081F480E690E0C6C0923049F420E0CA
:1004A0009A858A89981321E02A87CE010996BBC0D4
:1004B000823049F420E09A858A89981321E02A8BBA
:1004C000CE014196B0C02D843E844F8458886D88FB
:1004D0007E888F88988CEE24FF248701AA24BB2471
:1004E000650140E050E060E070E0E0E0F0E0C10174
:1004F00081709070892BE9F0E60CF71C081D191D1E
:100500009A01AB012A0D3B1D4C1D5D1D80E090E062
:10051000A0E0B0E0E614F7040805190520F481E036
:1005200090E0A0E0B0E0BA01A901480F591F6A1F8E
:100530007B1FAA0CBB1CCC1CDD1C97FE08C081E0F5
:1005400090E0A0E0B0E0A82AB92ACA2ADB2A3196B6
:10055000E032F10549F0660C771C881C991C569412
:10056000479437942794C3CFFA85EA892B893C892D
:100570008B859C85280F391F2E5F3F4F17C0CA01FE
:1005800081709070892B61F016950795F794E79428
:1005900080E090E0A0E0B0E8E82AF92A0A2B1B2BC3
:1005A00076956795579547952F5F3F4F77FDE7CF36
:1005B0000CC0440F551F661F771F17FD4160EE0CDE
:1005C000FF1C001F111F21503040403090E05907A0
:1005D00090E0690790E4790760F32B8F3C8FDB0193
:1005E000CA018F779070A070B07080349105A1051A
:1005F000B10561F447FD0AC0E114F10401051105DC
:1006000029F0405C5F4F6F4F7F4F40781A8EFE1786
:1006100011F081E08A8F4D8F5E8F6F8F78A383E01A
:10062000898FCE0149960E947105A096E2E10C9453
:100630003D12A8E1B0E0EFE1F3E00C9429126983E8
:100640007A838B839C832D833E834F835887B9E0C5
:10065000EB2EF12CEC0EFD1ECE010196B7010E948F
:1006600046068E010F5E1F4FCE010596B8010E940F
:1006700046062985223008F47EC03989323010F4CC
:10068000B8017CC08A859A8989278A87243011F02D
:10069000223031F4231709F06EC060E670E06EC0BE
:1006A000343039F41D861E861F86188A1C861B86E8
:1006B00004C0323021F484E08987B7015FC02B8504
:1006C0003C858B899C89281B390B3C872B87ED84C3
:1006D000FE840F851889AD88BE88CF88D88CEA142F
:1006E000FB040C051D0540F4EE0CFF1C001F111F40
:1006F000215030403C872B8720E030E040E050E044
:1007000080E090E0A0E0B0E460E070E0EA14FB0478
:100710000C051D0540F0282B392B4A2B5B2BEA18C2
:10072000FB080C091D09B695A79597958795EE0CC2
:10073000FF1C001F111F6F5F7F4F6F31710531F775
:10074000DA01C9018F779070A070B0708034910584
:10075000A105B10561F427FD0AC0E114F10401050A
:10076000110529F0205C3F4F4F4F5F4F20782D87B8
:100770003E874F87588BBE01675F7F4FCB010E943A
:1007800071056896EAE00C944512A8E1B0E0EBEC44
:10079000F3E00C942D1269837A838B839C832D83E1
:1007A0003E834F83588789E0E82EF12CEC0EFD1E26
:1007B000CE010196B7010E9446068E010F5E1F4FC3
:1007C000CE010596B8010E9446068985823040F028
:1007D0008989823028F0C701B8010E94BE0601C095
:1007E0008FEF6896E6E00C944912A8E1B0E0EBEFD9
:1007F000F3E00C942D1269837A838B839C832D8381
:100800003E834F83588789E0E82EF12CEC0EFD1EC5
:10081000CE010196B7010E9446068E010F5E1F4F62
:10082000CE010596B8010E9446068985823040F0C7
:100830008989823028F0C701B8010E94BE0601C034
:100840008FEF6896E6E00C944912A8E1B0E0EBE285
:10085000F4E00C942D1269837A838B839C832D831F
:100860003E834F83588789E0E82EF12CEC0EFD1E65
:10087000CE010196B7010E9446068E010F5E1F4F02
:10088000CE010596B8010E9446068985823040F067
:100890008989823028F0C701B8010E94BE0601C0D4
:1008A00081E06896E6E00C944912ACE0B0E0EBE53C
:1008B000F4E00C94311269837A838B839C83CE019C
:1008C0000196BE016B5F7F4F0E9446068D8182308C
:1008D00061F1823050F1843021F48E81882351F10E
:1008E0002EC02F81388537FD20C06E812F31310514
:1008F0001CF06623F9F023C08EE190E0821B930B7D
:1009000029853A854B855C8504C056954795379572
:1009100027958A95D2F76623B1F05095409530958A
:1009200021953F4F4F4F5F4F0EC020E030E040E039
:1009300050E009C02FEF3FEF4FEF5FE704C020E02A
:1009400030E040E050E8B901CA012C96E2E00C9496
:100950004D12A8E0B0E0EFEAF4E00C9429127B011C
:100960008C01611571058105910519F482E0898377
:1009700060C083E089838EE1C82ED12CDC82CB82DB
:10098000ED82FE820F831887C801B7010E942205FD
:10099000FC013197F7FF3BC0222733272E1B3F0B6B
:1009A00057016801022E04C0D694C794B794A79447
:1009B0000A94D2F740E050E060E070E081E090E01F
:1009C000A0E0B0E004C0880F991FAA1FBB1F2A95A2
:1009D000D2F70197A109B1098E219F21A023B1234C
:1009E0000097A105B10521F041E050E060E070E022
:1009F0004A295B296C297D294D835E836F83788723
:100A00008EE190E08E1B9F0B9C838B8312C03097EE
:100A100081F00E2E04C0EE0CFF1C001F111F0A9463
:100A2000D2F7ED82FE820F831887CE1ADF0ADC82AE
:100A3000CB821A82CE0101960E9471052896EAE0C7
:100A40000C944512EF92FF920F931F937B018C0140
:100A500080E0E81680E0F80681E0080780E01807EB
:100A600088F48FEFE816F1040105110531F028F044
:100A700088E090E0A0E0B0E017C080E090E0A0E067
:100A8000B0E012C080E0E81680E0F80680E00807D9
:100A900081E0180728F088E190E0A0E0B0E004C011
:100AA00080E190E0A0E0B0E020E230E040E050E003
:100AB000281B390B4A0B5B0B04C016950795F7945E
:100AC000E7948A95D2F7F701E859FF4F8081281BF8
:100AD000310941095109C9011F910F91FF90EF9010
:100AE0000895DF92EF92FF920F931F93FC01E48031
:100AF000F58006811781D1808081823048F480E0C2
:100B000090E0A0E1B0E0E82AF92A0A2B1B2BA5C04F
:100B1000843009F49FC0823021F4EE24FF24870141
:100B200005C0E114F1040105110519F4E0E0F0E05D
:100B300096C0628173819FEF623879070CF05BC0C9
:100B400022E83FEF261B370B2A3131052CF020E03D
:100B500030E040E050E02AC0B801A701022E04C0F6
:100B600076956795579547950A94D2F781E090E07E
:100B7000A0E0B0E004C0880F991FAA1FBB1F2A95F0
:100B8000D2F70197A109B1098E219F21A023B1239A
:100B90000097A105B10521F081E090E0A0E0B0E070
:100BA0009A01AB01282B392B4A2B5B2BDA01C901A7
:100BB0008F779070A070B07080349105A105B10559
:100BC00039F427FF09C0205C3F4F4F4F5F4F04C0EF
:100BD000215C3F4F4F4F5F4FE0E0F0E02030A0E05E
:100BE0003A07A0E04A07A0E45A0710F0E1E0F0E07D
:100BF00079018A0127C06038710564F5FB01E1586D
:100C0000FF4FD801C7018F779070A070B07080340B
:100C10009105A105B10539F4E7FE0DC080E490E02F
:100C2000A0E0B0E004C08FE390E0A0E0B0E0E80E08
:100C3000F91E0A1F1B1F17FF05C016950795F7948D
:100C4000E794319687E016950795F794E7948A958F
:100C5000D1F705C0EE24FF248701EFEFF0E06E2FFF
:100C6000679566276795902F9F77D794DD24D79453
:100C70008E2F8695492F462B582F5D29B701CA0123
:100C80001F910F91FF90EF90DF900895FC01DB0121
:100C9000408151812281622F6F7770E0221F2227CD
:100CA000221F9381892F880F822B282F30E0991FD4
:100CB0009927991F11969C93119721153105A9F534
:100CC000411551056105710511F482E037C082E8D4
:100CD0009FEF13969C938E9312979A01AB0167E056
:100CE000220F331F441F551F6A95D1F783E08C9361
:100CF0000DC0220F331F441F551F12968D919C91DA
:100D00001397019713969C938E931297203080E04F
:100D1000380780E0480780E4580758F314962D936D
:100D20003D934D935C93179708952F3F310579F4C8
:100D3000411551056105710519F484E08C930895FE
:100D400064FF03C081E08C9312C01C9210C02F5727
:100D5000304013963C932E93129783E08C9387E058
:100D6000440F551F661F771F8A95D1F7706414963C
:100D70004D935D936D937C93179708951F93DC01BA
:100D8000FB019C91923008F447C08081823008F4C6
:100D900043C0943051F411961C91843099F58181AF
:100DA000682F70E0611B71093FC0843021F09230E0
:100DB00031F48230B9F18181882389F12DC01196F7
:100DC0001C9111978230F1F081811817D9F4129695
:100DD0002D913C911397828193818217930794F010
:100DE00028173907BCF014968D919D910D90BC91F8
:100DF000A02D2481358146815781281739074A075C
:100E00005B0718F4112341F00AC082179307A40767
:100E1000B50740F4112319F061E070E005C06FEFF1
:100E20007FEF02C060E070E0CB011F9108951F9238
:100E30000F920FB60F9211242F933F934F935F930E
:100E40006F937F938F939F93AF93BF93EF93FF9392
:100E5000DF93CF93CDB7DEB7E0917A01F0917B01BC
:100E60000995CF91DF91FF91EF91BF91AF919F9144
:100E70008F917F916F915F914F913F912F910F9043
:100E80000FBE0F901F9018951F920F920FB60F92E2
:100E900011242F933F934F935F936F937F938F937F
:100EA0009F93AF93BF93EF93FF93DF93CF93CDB710
:100EB000DEB7E0917801F09179010995CF91DF914A
:100EC000FF91EF91BF91AF919F918F917F916F9122
:100ED0005F914F913F912F910F900FBE0F901F90F8
:100EE00018951F920F920FB60F9211242F933F93D4
:100EF0004F935F936F937F938F939F93AF93BF9322
:100F0000EF93FF93DF93CF93CDB7DEB7E0917C01F2
:100F1000F0917D010995CF91DF91FF91EF91BF9104
:100F2000AF919F918F917F916F915F914F913F9181
:100F30002F910F900FBE0F901F901895DF93CF93B6
:100F400000D000D000D0CDB7DEB76B837C838D831B
:100F50009E83AAE2B0E0EAE2F0E0808180618C93B7
:100F6000AAE2B0E0EAE2F0E0808188608C93A0E43D
:100F7000B0E0E0E4F0E0808180688C93A0E4B0E031
:100F8000E0E4F0E0808182608C93A0E4B0E0E0E4F3
:100F9000F0E0808184608C93AAE2B0E0EAE2F0E0C5
:100FA00080818B7F8C93A0E4B0E0E0E4F0E080816E
:100FB0008F7B8C93A0E4B0E0E0E4F0E080818E7F52
:100FC0008C93A0E4B0E0E0E4F0E080818F7E8C932D
:100FD000A0E4B0E0E0E4F0E080818F7D8C93A0E4B9
:100FE000B0E0E0E4F0E08081877F8C938B819C818E
:100FF000AD81BE81880F991FAA1FBB1F880F991F43
:10100000AA1FBB1F880F991FAA1FBB1F880F991FFC
:10101000AA1FBB1F9C01AD0180E492E4AFE0B0E0E9
:10102000BC01CD010E94FF11DA01C90101979A8329
:101030008983E0E4F0E089819A81892F99278F7074
:101040008083E9E2F0E08981808326960FB6F894E8
:10105000DEBF0FBECDBFCF91DF910895DF93CF9359
:101060000F92CDB7DEB78983EBE2F0E08081882F65
:1010700090E0807290700097B9F3ECE2F0E0898123
:1010800080830F90CF91DF910895DF93CF9300D0AD
:10109000CDB7DEB79A8389830AC0E981FA8180815E
:1010A0000E942E0889819A8101969A838983E98119
:1010B000FA818081882389F70F900F90CF91DF917B
:1010C0000895DF93CF9300D0CDB7DEB79A8389839D
:1010D000EBE2F0E080818823DCF7ECE2F0E0808155
:1010E000E981FA8180830F900F90CF91DF9108956D
:1010F000DF93CF9300D00F92CDB7DEB79A83898369
:101100006B838B81882339F489819A8190937B0149
:1011100080937A0113C08B81813039F489819A815F
:1011200090937D0180937C0109C08B81823031F4E2
:1011300089819A8190937901809378010F900F9023
:101140000F90CF91DF910895DF93CF93CDB7DEB7A6
:10115000AAE2B0E0EAE2F0E0808180688C93CF916F
:10116000DF910895DF93CF93CDB7DEB7AAE2B0E069
:10117000EAE2F0E080818F778C93CF91DF91089540
:10118000DF93CF93CDB7DEB7AAE2B0E0EAE2F0E0BA
:10119000808180648C93CF91DF910895DF93CF930A
:1011A000CDB7DEB7AAE2B0E0EAE2F0E080818F7B63
:1011B0008C93CF91DF910895DF93CF93CDB7DEB7B6
:1011C000AAE2B0E0EAE2F0E0808180628C93CF9105
:1011D000DF910895DF93CF93CDB7DEB7AAE2B0E0F9
:1011E000EAE2F0E080818F7D8C93CF91DF910895CA
:1011F000DF93CF93CDB7DEB78CE061E00E948C0C1B
:101200008DE061E00E948C0C8EE061E00E948C0C0D
:101210008FE061E00E948C0C88E060E00E948C0C02
:1012200089E060E00E948C0C8AE060E00E948C0CF7
:101230008BE060E00E948C0C81E061E00E94270F4F
:1012400088E00E94D20D89E00E94D20D8AE00E94BF
:10125000D20D8BE00E94D20D8CE061E00E94820BE7
:101260008DE061E00E94820B8EE061E00E94820BC3
:101270008FE061E00E94820BCF91DF910895DF93B0
:10128000CF93CDB7DEB762970FB6F894DEBF0FBE2F
:10129000CDBF198AA9C08989845F60E00E94820B52
:1012A000188A1F8693C080E090E0A0EAB0E48B87A4
:1012B0009C87AD87BE876B857C858D859E8520E06C
:1012C00030E04AEF54E40E941F02DC01CB018F831F
:1012D0009887A987BA876F81788589859A8520E064
:1012E00030E040E85FE30E94250488232CF481E08D
:1012F00090E09E838D833FC06F81788589859A8534
:1013000020E03FEF4FE757E40E94C50318164CF565
:101310006B857C858D859E8520E030E040E251E440
:101320000E941F02DC01CB01BC01CD010E944900DB
:10133000DC01CB019E838D830FC088EC90E09C8301
:101340008B838B819C810197F1F79C838B838D81AB
:101350009E8101979E838D838D819E81009769F781
:1013600014C06F81788589859A850E944900DC01C7
:10137000CB019E838D838D819E819A838983898110
:101380009A810197F1F79A8389838F85885F0E94FC
:10139000A70E8823B1F48989845F61E00E94820BE3
:1013A0008989882F90E02F853889880F991F880FA9
:1013B000991F820F931FFC01E859FE4F80818A8B91
:1013C00018C08F8598890196988B8F878F8598890B
:1013D000843091050CF467CF8989845F61E00E94B5
:1013E000820B89898F5F898B8989843008F453CF78
:1013F0001A8A8A8962960FB6F894DEBF0FBECDBFF7
:10140000CF91DF910895DF93CF93CDB7DEB7AFE5EE
:10141000B0E0EFE5F0E0808180688C93CF91DF91C0
:101420000895DF93CF93CDB7DEB7AFE5B0E0EFE53A
:10143000F0E080818F778C93CF91DF9108951F9298
:101440000F920FB60F9211242F933F934F935F93F8
:101450006F937F938F939F93AF93BF93EF93FF937C
:10146000DF93CF93CDB7DEB7E0918001F09181019A
:101470000995CF91DF91FF91EF91BF91AF919F912E
:101480008F917F916F915F914F913F912F910F902D
:101490000FBE0F901F9018951F920F920FB60F92CC
:1014A00011242F933F934F935F936F937F938F9369
:1014B0009F93AF93BF93EF93FF93DF93CF93CDB7FA
:1014C000DEB7E0917E01F0917F010995CF91DF9128
:1014D000FF91EF91BF91AF919F918F917F916F910C
:1014E0005F914F913F912F910F900FBE0F901F90E2
:1014F00018951F920F920FB60F9211242F933F93BE
:101500004F935F936F937F938F939F93AF93BF930B
:10151000EF93FF93DF93CF93CDB7DEB7E0918201D6
:10152000F09183010995CF91DF91FF91EF91BF91E8
:10153000AF919F918F917F916F915F914F913F916B
:101540002F910F900FBE0F901F901895DF93CF93A0
:10155000CDB7DEB7A5E5B0E0E5E5F0E080818160DC
:101560008C93A5E5B0E0E5E5F0E080818D7F8C937C
:10157000A5E5B0E0E5E5F0E0808184608C93A5E529
:10158000B0E0E5E5F0E08081877F8C93A4E5B0E0F2
:10159000E4E5F0E080818F7B8C93AAE5B0E0EAE59A
:1015A000F0E080818F7B8C93AAE5B0E0EAE5F0E083
:1015B00080818F778C93AAE5B0E0EAE5F0E0808146
:1015C0008F7D8C930E94410B0E944F0B0E945D0BFC
:1015D000CF91DF910895DF93CF9300D00F92CDB7D5
:1015E000DEB79A8389836B838B81882339F4898161
:1015F0009A81909381018093800113C08B81813007
:1016000039F489819A8190937F0180937E0109C08A
:101610008B81823031F489819A8190938301809308
:1016200082010F900F900F90CF91DF910895DF937B
:10163000CF93CDB7DEB7ABE5B0E0EBE5F0E080816E
:1016400080648C93CF91DF910895DF93CF93CDB7D2
:10165000DEB7ABE5B0E0EBE5F0E0808180688C932D
:10166000CF91DF910895DF93CF93CDB7DEB7ABE590
:10167000B0E0EBE5F0E0808180628C93CF91DF9168
:101680000895DF93CF93CDB7DEB7ABE5B0E0EBE5E0
:10169000F0E080818F7B8C93CF91DF910895DF9371
:1016A000CF93CDB7DEB7ABE5B0E0EBE5F0E08081FE
:1016B0008F778C93CF91DF910895DF93CF93CDB740
:1016C000DEB7ABE5B0E0EBE5F0E080818F7D8C9399
:1016D000CF91DF910895DF93CF93CDB7DEB7EAE3E3
:1016E000F0E08FEF8083E7E3F0E08FEF8083E4E3C7
:1016F000F0E08FEF8083E1E3F0E08EEF8083CF9125
:10170000DF910895DF93CF9300D000D000D0CDB704
:10171000DEB78B836C838B8187708A838B81869500
:101720008695869589838981282F30E03E832D8395
:101730008D819E818130910509F447C02D813E81C4
:10174000223031052CF48D819E81009771F0CBC041
:101750002D813E812230310509F467C08D819E8143
:101760008330910509F491C0BEC08C818130A1F411
:10177000ABE3B0E0EBE3F0E08081482F8A81282FD3
:1017800030E081E090E0022E02C0880F991F0A9499
:10179000E2F7842B8C93A7C08C81882309F0A3C027
:1017A000ABE3B0E0EBE3F0E08081482F8A81282FA3
:1017B00030E081E090E0022E02C0880F991F0A9469
:1017C000E2F7809584238C938EC08C818130A1F4C4
:1017D000A8E3B0E0E8E3F0E08081482F8A81282F79
:1017E00030E081E090E0022E02C0880F991F0A9439
:1017F000E2F7842B8C9377C08C81882309F073C027
:10180000A8E3B0E0E8E3F0E08081482F8A81282F48
:1018100030E081E090E0022E02C0880F991F0A9408
:10182000E2F7809584238C935EC08C818130A1F493
:10183000A5E3B0E0E5E3F0E08081482F8A81282F1E
:1018400030E081E090E0022E02C0880F991F0A94D8
:10185000E2F7842B8C9347C08C81882309F043C026
:10186000A5E3B0E0E5E3F0E08081482F8A81282FEE
:1018700030E081E090E0022E02C0880F991F0A94A8
:10188000E2F7809584238C932EC08C818130A1F463
:10189000A2E3B0E0E2E3F0E08081482F8A81282FC4
:1018A00030E081E090E0022E02C0880F991F0A9478
:1018B000E2F7842B8C9317C08C818823A1F4A2E3D8
:1018C000B0E0E2E3F0E08081482F8A81282F30E009
:1018D00081E090E0022E02C0880F991F0A94E2F77F
:1018E000809584238C9326960FB6F894DEBF0FBEA6
:1018F000CDBFCF91DF910895DF93CF9300D0CDB7C7
:10190000DEB789836A83898160E00E94820B0F9031
:101910000F90CF91DF910895DF93CF9300D000D047
:1019200000D0CDB7DEB78B836C838B8187708A83C1
:101930008B8186958695869589838981282F30E0CD
:101940003E832D838D819E818130910509F45AC09B
:101950002D813E81223031052CF48D819E810097AE
:1019600071F017C12D813E812230310509F48DC0FF
:101970008D819E818330910509F4CAC00AC18C8192
:101980008130A1F4AAE3B0E0EAE3F0E08081482FDF
:101990008A81282F30E081E090E0022E02C0880F7B
:1019A000991F0A94E2F7842B8C93F3C08C818823CF
:1019B00009F0EFC0AAE3B0E0EAE3F0E08081482F4D
:1019C0008A81282F30E081E090E002C0880F991FC3
:1019D0002A95E2F7809584238C93ABE3B0E0EBE3A8
:1019E000F0E08081482F8A81282F30E081E090E06C
:1019F000022E02C0880F991F0A94E2F78095842373
:101A00008C93C7C08C818130A1F4A7E3B0E0E7E3F9
:101A1000F0E08081482F8A81282F30E081E090E03B
:101A2000022E02C0880F991F0A94E2F7842B8C9330
:101A3000B0C08C81882309F0ACC0A7E3B0E0E7E335
:101A4000F0E08081482F8A81282F30E081E090E00B
:101A500002C0880F991F2A95E2F7809584238C9302
:101A6000A8E3B0E0E8E3F0E08081482F8A81282FE6
:101A700030E081E090E0022E02C0880F991F0A94A6
:101A8000E2F7809584238C9384C08C818130A1F40B
:101A9000A4E3B0E0E4E3F0E08081482F8A81282FBE
:101AA00030E081E090E0022E02C0880F991F0A9476
:101AB000E2F7842B8C936DC08C81882309F069C078
:101AC000A7E3B0E0E7E3F0E08081482F8A81282F88
:101AD00030E081E090E002C0880F991F2A95E2F77C
:101AE000809584238C93A8E3B0E0E8E3F0E0808164
:101AF000482F8A81282F30E081E090E0022E02C03A
:101B0000880F991F0A94E2F7809584238C9341C033
:101B10008C818130A1F4A1E3B0E0E1E3F0E08081C9
:101B2000482F8A81282F30E081E090E0022E02C009
:101B3000880F991F0A94E2F7842B8C932AC08C811A
:101B4000882339F5A1E3B0E0E1E3F0E08081482F9C
:101B50008A81282F30E081E090E002C0880F991F31
:101B60002A95E2F7809584238C93A2E3B0E0E2E328
:101B7000F0E08081482F8A81282F30E081E090E0DA
:101B8000022E02C0880F991F0A94E2F780958423E1
:101B90008C9326960FB6F894DEBF0FBECDBFCF91C3
:101BA000DF910895DF93CF9300D000D00F92CDB78F
:101BB000DEB78B838B8187708A838B818695869530
:101BC000869589838981282F30E03D832C838C8101
:101BD0009D818130910509F43EC02C813D812230E8
:101BE00031052CF48C819D81009771F0A8C02C8167
:101BF0003D812230310509F455C08C819D818330AF
:101C0000910509F476C09BC0AAE3B0E0EAE3F0E0F6
:101C10008081482F8A81282F30E081E090E002C047
:101C2000880F991F2A95E2F7809584238C93ABE364
:101C3000B0E0EBE3F0E08081482F8A81282F30E08C
:101C400081E090E0022E02C0880F991F0A94E2F70B
:101C5000842B8C9374C0A8E3B0E0E8E3F0E08081CB
:101C6000482F8A81282F30E081E090E002C0880F61
:101C7000991F2A95E2F7842B8C93A7E3B0E0E7E362
:101C8000F0E08081482F8A81282F30E081E090E0C9
:101C9000022E02C0880F991F0A94E2F780958423D0
:101CA0008C934DC0A5E3B0E0E5E3F0E08081482FE0
:101CB0008A81282F30E081E090E002C0880F991FD0
:101CC0002A95E2F7842B8C93A4E3B0E0E4E3F0E000
:101CD0008081482F8A81282F30E081E090E0022E19
:101CE00002C0880F991F0A94E2F7809584238C9391
:101CF00026C0A1E3B0E0E1E3F0E08081482F8A81D3
:101D0000282F30E081E090E002C0880F991F2A95CB
:101D1000E2F7809584238C93A2E3B0E0E2E3F0E065
:101D20008081482F8A81282F30E081E090E0022EC8
:101D300002C0880F991F0A94E2F7842B8C930F90AE
:101D40000F900F900F900F90CF91DF910895DF9338
:101D5000CF9300D000D000D0CDB7DEB78C838C817C
:101D600087708B838C818695869586958A838A81F8
:101D7000282F30E03E832D838D819E818130910517
:101D800039F12D813E81223031052CF48D819E81E7
:101D9000009761F052C02D813E812230310551F112
:101DA0008D819E8183309105B9F147C0E9E3F0E070
:101DB0008081482F8B81282F30E081E090E0022E37
:101DC00002C0880F991F0A94E2F78423898335C0E3
:101DD000E6E3F0E08081482F8B81282F30E081E01E
:101DE00090E0022E02C0880F991F0A94E2F7842324
:101DF000898323C0E3E3F0E08081482F8B81282F83
:101E000030E081E090E0022E02C0880F991F0A9412
:101E1000E2F78423898311C0E0E3F0E08081482F5A
:101E20008B81282F30E081E090E0022E02C0880FE5
:101E3000991F0A94E2F784238983898126960FB635
:101E4000F894DEBF0FBECDBFCF91DF910895DF9331
:101E5000CF9300D000D0CDB7DEB789836A83898164
:101E6000282F30E03C832B838B819C81813091052E
:101E7000D1F02B813C81223031052CF48B819C8167
:101E8000009761F01EC02B813C812230310581F02A
:101E90008B819C818330910581F013C0EBE3F0E0EE
:101EA0008A8180830EC0E8E3F0E08A81808309C0E4
:101EB000E5E3F0E08A81808304C0E2E3F0E08A8118
:101EC00080830F900F900F900F90CF91DF91089526
:101ED000DF93CF9300D0CDB7DEB789836A83898142
:101EE00060E00E94270F0F900F90CF91DF9108952F
:101EF000DF93CF9300D000D0CDB7DEB7898389813F
:101F0000282F30E03C832B838B819C81813091058D
:101F1000D1F02B813C81223031052CF48B819C81C6
:101F2000009761F01FC02B813C812230310581F088
:101F30008B819C818330910581F014C0EBE3F0E04C
:101F400090819A8310C0E8E3F0E020812A830BC0DF
:101F5000E5E3F0E030813A8306C0E2E3F0E080811F
:101F60008A8301C01A828A810F900F900F900F9080
:101F7000CF91DF9108951F920F920FB60F92112407
:101F80002F933F934F935F936F937F938F939F9381
:101F9000AF93BF93EF93FF93DF93CF93CDB7DEB7AC
:101FA000E0918601F09187010995CF91DF91FF9132
:101FB000EF91BF91AF919F918F917F916F915F91C1
:101FC0004F913F912F910F900FBE0F901F9018953A
:101FD000DF93CF93CDB7DEB7A7E2B0E0E7E2F0E062
:101FE000808180648C93A7E2B0E0E7E2F0E080813A
:101FF0008F778C93A7E2B0E0E7E2F0E080818F7DFD
:102000008C93A7E2B0E0E7E2F0E080818E7F8C93D2
:10201000A7E2B0E0E7E2F0E080818D7F8C93A7E259
:10202000B0E0E7E2F0E080818B7F8C93A6E2B0E045
:10203000E6E2F0E0808180688C93A6E2B0E0E6E220
:10204000F0E08081877F8C93A6E2B0E0E6E2F0E0EA
:1020500080818F7E8C93CF91DF910895DF93CF9312
:10206000CDB7DEB7A6E2B0E0E6E2F0E080818068BE
:102070008C93CF91DF910895DF93CF93CDB7DEB7E7
:10208000A6E2B0E0E6E2F0E080818F778C93CF911A
:10209000DF910895DF93CF9300D0CDB7DEB79A8359
:1020A000898389819A8190938701809386010F901B
:1020B0000F90CF91DF910895DF93CF93CDB7DEB727
:1020C000A6E2B0E0E6E2F0E0808188608C93CF91F8
:1020D000DF910895DF93CF93CDB7DEB7A6E2B0E0EE
:1020E000E6E2F0E08081877F8C93CF91DF910895C5
:1020F000DF93CF9300D000D00F92CDB7DEB78D83A2
:10210000A7E2B0E0E7E2F0E08081807E8C93A7E276
:10211000B0E0E7E2F0E090818D81892B8C93A6E21C
:10212000B0E0E6E2F0E0808180648C93E6E2F0E0EB
:102130008081882F90E0807190700097B9F3A6E2BB
:10214000B0E0E6E2F0E0808180618C93E4E2F0E0D0
:102150008081882F90E09C838B83E5E2F0E0808192
:10216000882F90E09A83898389819A81382F22274A
:102170008B819C81822B932B0F900F900F900F904F
:102180000F90CF91DF910895DF93CF9300D000D0CF
:10219000CDB7DEB7E4E2F0E08081882F90E09C8349
:1021A0008B83E5E2F0E08081882F90E09A83898339
:1021B00089819A81382F22278B819C81822B932BB6
:1021C0000F900F900F900F90CF91DF910895DF93B4
:1021D000CF93CDB7DEB70E94C410CC01A0E0B0E031
:1021E000BC01CD010E94A904DC01CB01BC01CD01E1
:1021F00020E030E040EC50E40E941F02DC01CB0103
:10220000BC01CD0120E030EC4FE754E40E941903FB
:10221000DC01CB01BC01CD01CF91DF910895DF93AB
:10222000CF93CDB7DEB781E10E942E08CF91DF9129
:102230000895DF93CF93CDB7DEB782E10E942E08D9
:10224000CF91DF910895DF93CF93CDB7DEB7299774
:102250000FB6F894DEBF0FBECDBF0E946B0B0E947D
:10226000E80F0E942E1060E875E280E090E00E9486
:102270009E070E94030A0E94A60A0E94250B0E9444
:10228000170B8FE091E160E00E94EB0A89E191E198
:1022900061E00E94EB0A8AE160E00E948C0C8BE115
:1022A00060E00E948C0C8AE10E94D20D8BE10E94BA
:1022B000D20D1B821A82198280E00E9478100E943F
:1022C000E710DC01CB01BC01CD010E944900DC011B
:1022D000CB018D8381E00E9478100E94E710DC0121
:1022E000CB01BC01CD010E944900DC01CB018C83F4
:1022F0008B81882321F48D818B838C818A839B81C0
:102300008D819817E1F18D818B838B81282F30E0AF
:1023100039872887888599858330910519F1288523
:102320003985243031055CF48885998581309105A3
:1023300089F0288539852230310581F020C08885D3
:1023400099858430910591F02885398525303105AE
:1023500099F015C081E00E942E0811C082E00E9411
:102360002E080DC083E00E942E0809C084E08983F6
:1023700084E00E942E0803C085E00E942E089A8106
:102380008C81981709F498CF8C818A838C81282FAF
:1023900030E03F832E838E819F818330910519F138
:1023A0002E813F81243031055CF48E819F81813004
:1023B000910589F02E813F812230310581F07CCF5B
:1023C0008E819F818430910591F02E813F8125304F
:1023D000310589F071CF86E00E942E086DCF87E02D
:1023E0000E942E0869CF88E00E942E0865CF89E000
:1023F0000E942E0861CF80E10E942E085DCFA1E2ED
:102400001A2EAA1BBB1BFD010DC0AA1FBB1FEE1F6E
:10241000FF1FA217B307E407F50720F0A21BB30BB9
:10242000E40BF50B661F771F881F991F1A9469F735
:1024300060957095809590959B01AC01BD01CF0191
:1024400008952F923F924F925F926F927F928F9258
:102450009F92AF92BF92CF92DF92EF92FF920F9333
:102460001F93CF93DF93CDB7DEB7CA1BDB0B0FB63D
:10247000F894DEBF0FBECDBF09942A8839884888FA
:102480005F846E847D848C849B84AA84B984C88490
:10249000DF80EE80FD800C811B81AA81B981CE0F87
:1024A000D11D0FB6F894DEBF0FBECDBFED0108956C
:0424B000F894FFCFCE
:1024B4000000000000000000000102020303030307
:1024C40004040404040404040505050505050505C0
:1024D40005050505050505050606060606060606A0
:1024E4000606060606060606060606060606060688
:1024F4000606060606060606070707070707070770
:102504000707070707070707070707070707070757
:102514000707070707070707070707070707070747
:102524000707070707070707070707070707070737
:10253400070707070707070708080808080808081F
:102544000808080808080808080808080808080807
:1025540008080808080808080808080808080808F7
:1025640008080808080808080808080808080808E7
:1025740008080808080808080808080808080808D7
:1025840008080808080808080808080808080808C7
:1025940008080808080808080808080808080808B7
:1025A40008080808080808080808080808080808A7
:1025B400080808080808080837383941343536420D
:0825C400313233434430454637
:00000001FF
